{
  "contractName": "Item",
  "abi": [
    {
      "inputs": [
        {
          "internalType": "contract ItemManager",
          "name": "_manager",
          "type": "address"
        },
        {
          "internalType": "uint256",
          "name": "_index",
          "type": "uint256"
        },
        {
          "internalType": "uint256",
          "name": "_priceInWei",
          "type": "uint256"
        }
      ],
      "stateMutability": "nonpayable",
      "type": "constructor"
    },
    {
      "inputs": [],
      "name": "index",
      "outputs": [
        {
          "internalType": "uint256",
          "name": "",
          "type": "uint256"
        }
      ],
      "stateMutability": "view",
      "type": "function"
    },
    {
      "inputs": [],
      "name": "priceInWei",
      "outputs": [
        {
          "internalType": "uint256",
          "name": "",
          "type": "uint256"
        }
      ],
      "stateMutability": "view",
      "type": "function"
    },
    {
      "stateMutability": "payable",
      "type": "receive"
    }
  ],
  "bytecode": "0x608060405234801561001057600080fd5b50604051610672380380610672833981810160405281019061003291906100b2565b826000806101000a81548173ffffffffffffffffffffffffffffffffffffffff021916908373ffffffffffffffffffffffffffffffffffffffff160217905550816001819055508060028190555050505061017d565b6000815190506100978161014f565b92915050565b6000815190506100ac81610166565b92915050565b6000806000606084860312156100c757600080fd5b60006100d586828701610088565b93505060206100e68682870161009d565b92505060406100f78682870161009d565b9150509250925092565b600061010c82610125565b9050919050565b600061011e82610101565b9050919050565b600073ffffffffffffffffffffffffffffffffffffffff82169050919050565b6000819050919050565b61015881610113565b811461016357600080fd5b50565b61016f81610145565b811461017a57600080fd5b50565b6104e68061018c6000396000f3fe60806040526004361061002d5760003560e01c80632986c0e5146101f55780633c8da58814610220576101f0565b366101f0576002543414610076576040517f08c379a000000000000000000000000000000000000000000000000000000000815260040161006d90610314565b60405180910390fd5b34600360008282546100889190610376565b9250508190555060008060009054906101000a900473ffffffffffffffffffffffffffffffffffffffff1673ffffffffffffffffffffffffffffffffffffffff16346001546040516024016100dd9190610334565b6040516020818303038152906040527f800fb83f000000000000000000000000000000000000000000000000000000007bffffffffffffffffffffffffffffffffffffffffffffffffffffffff19166020820180517bffffffffffffffffffffffffffffffffffffffffffffffffffffffff838183161783525050505060405161016791906102dd565b60006040518083038185875af1925050503d80600081146101a4576040519150601f19603f3d011682016040523d82523d6000602084013e6101a9565b606091505b50509050806101ed576040517f08c379a00000000000000000000000000000000000000000000000000000000081526004016101e4906102f4565b60405180910390fd5b50005b600080fd5b34801561020157600080fd5b5061020a61024b565b6040516102179190610334565b60405180910390f35b34801561022c57600080fd5b50610235610251565b6040516102429190610334565b60405180910390f35b60015481565b60025481565b60006102628261034f565b61026c818561035a565b935061027c8185602086016103d6565b80840191505092915050565b6000610295601983610365565b91506102a082610438565b602082019050919050565b60006102b8602183610365565b91506102c382610461565b604082019050919050565b6102d7816103cc565b82525050565b60006102e98284610257565b915081905092915050565b6000602082019050818103600083015261030d81610288565b9050919050565b6000602082019050818103600083015261032d816102ab565b9050919050565b600060208201905061034960008301846102ce565b92915050565b600081519050919050565b600081905092915050565b600082825260208201905092915050565b6000610381826103cc565b915061038c836103cc565b9250827fffffffffffffffffffffffffffffffffffffffffffffffffffffffffffffffff038211156103c1576103c0610409565b5b828201905092915050565b6000819050919050565b60005b838110156103f45780820151818401526020810190506103d9565b83811115610403576000848401525b50505050565b7f4e487b7100000000000000000000000000000000000000000000000000000000600052601160045260246000fd5b7f4974656d3a205472616e73616374696f6e206661696c65642e00000000000000600082015250565b7f4974656d3a204f6e6c792065786163742076616c75657320616363657074656460008201527f2e0000000000000000000000000000000000000000000000000000000000000060208201525056fea2646970667358221220018d274922e0463f8fa67f6eb3ebc99d338b3a02b8a10237ec1c1283a68c485364736f6c63430008010033",
  "immutableReferences": {},
  "source": "// SPDX-License-Identifier: MIT\npragma solidity ^0.8.0;\n\nimport { ItemManager } from  \"./ItemManager.sol\";\n\ncontract Item {\n    ItemManager manager;\n    uint public index;\n    uint public priceInWei;\n    uint weiPaid;\n\n    constructor(ItemManager _manager, uint _index, uint _priceInWei) {\n        manager = _manager;\n        index = _index;\n        priceInWei = _priceInWei;\n    }\n\n    /**\n     * @dev Calls trigger payment for item in manager.\n     */\n    receive() external payable {\n        require(msg.value == priceInWei, \"Item: Only exact values accepted.\");\n        weiPaid += msg.value;\n        (bool success, ) = address(manager).call{value: msg.value}\n            (abi.encodeWithSignature(\"triggerPayment(uint256)\", index));\n        require(success, \"Item: Transaction failed.\");\n    }\n}",
  "sourcePath": "/Users/matkuch/Code/supply-chain/contracts/Item.sol",
  "compiler": {
    "name": "solc",
    "version": "0.8.1+commit.df193b15.Emscripten.clang"
  },
  "schemaVersion": "3.4.6",
  "updatedAt": "2022-04-06T01:58:46.892Z",
  "devdoc": {
    "kind": "dev",
    "methods": {},
    "version": 1
  },
  "userdoc": {
    "kind": "user",
    "methods": {},
    "version": 1
  }
}