{
  "contractName": "ItemManager",
  "abi": [
    {
      "anonymous": false,
      "inputs": [
        {
          "indexed": false,
          "internalType": "uint256",
          "name": "_itemIndex",
          "type": "uint256"
        },
        {
          "indexed": false,
          "internalType": "string",
          "name": "_identifier",
          "type": "string"
        },
        {
          "indexed": false,
          "internalType": "uint256",
          "name": "_price",
          "type": "uint256"
        },
        {
          "indexed": false,
          "internalType": "uint256",
          "name": "_step",
          "type": "uint256"
        },
        {
          "indexed": false,
          "internalType": "address",
          "name": "_itemAddress",
          "type": "address"
        }
      ],
      "name": "ItemCreation",
      "type": "event"
    },
    {
      "anonymous": false,
      "inputs": [
        {
          "indexed": false,
          "internalType": "uint256",
          "name": "_itemIndex",
          "type": "uint256"
        },
        {
          "indexed": false,
          "internalType": "uint256",
          "name": "_step",
          "type": "uint256"
        },
        {
          "indexed": false,
          "internalType": "address",
          "name": "_itemAddress",
          "type": "address"
        }
      ],
      "name": "ItemDelivery",
      "type": "event"
    },
    {
      "anonymous": false,
      "inputs": [
        {
          "indexed": false,
          "internalType": "uint256",
          "name": "_itemIndex",
          "type": "uint256"
        },
        {
          "indexed": false,
          "internalType": "uint256",
          "name": "_step",
          "type": "uint256"
        },
        {
          "indexed": false,
          "internalType": "address",
          "name": "_itemAddress",
          "type": "address"
        }
      ],
      "name": "ItemPaid",
      "type": "event"
    },
    {
      "anonymous": false,
      "inputs": [
        {
          "indexed": true,
          "internalType": "address",
          "name": "previousOwner",
          "type": "address"
        },
        {
          "indexed": true,
          "internalType": "address",
          "name": "newOwner",
          "type": "address"
        }
      ],
      "name": "OwnershipTransferred",
      "type": "event"
    },
    {
      "inputs": [],
      "name": "index",
      "outputs": [
        {
          "internalType": "uint256",
          "name": "",
          "type": "uint256"
        }
      ],
      "stateMutability": "view",
      "type": "function",
      "constant": true
    },
    {
      "inputs": [
        {
          "internalType": "uint256",
          "name": "",
          "type": "uint256"
        }
      ],
      "name": "items",
      "outputs": [
        {
          "internalType": "enum ItemManager.SupplyChainSteps",
          "name": "_step",
          "type": "uint8"
        },
        {
          "internalType": "string",
          "name": "_identifier",
          "type": "string"
        },
        {
          "internalType": "contract Item",
          "name": "_item",
          "type": "address"
        }
      ],
      "stateMutability": "view",
      "type": "function",
      "constant": true
    },
    {
      "inputs": [],
      "name": "owner",
      "outputs": [
        {
          "internalType": "address",
          "name": "",
          "type": "address"
        }
      ],
      "stateMutability": "view",
      "type": "function",
      "constant": true
    },
    {
      "inputs": [],
      "name": "renounceOwnership",
      "outputs": [],
      "stateMutability": "nonpayable",
      "type": "function"
    },
    {
      "inputs": [
        {
          "internalType": "address",
          "name": "newOwner",
          "type": "address"
        }
      ],
      "name": "transferOwnership",
      "outputs": [],
      "stateMutability": "nonpayable",
      "type": "function"
    },
    {
      "inputs": [
        {
          "internalType": "string",
          "name": "_identifier",
          "type": "string"
        },
        {
          "internalType": "uint256",
          "name": "_priceInWei",
          "type": "uint256"
        }
      ],
      "name": "createItem",
      "outputs": [],
      "stateMutability": "nonpayable",
      "type": "function"
    },
    {
      "inputs": [
        {
          "internalType": "uint256",
          "name": "_index",
          "type": "uint256"
        }
      ],
      "name": "triggerPayment",
      "outputs": [],
      "stateMutability": "payable",
      "type": "function",
      "payable": true
    },
    {
      "inputs": [
        {
          "internalType": "uint256",
          "name": "_index",
          "type": "uint256"
        }
      ],
      "name": "triggerDelivery",
      "outputs": [],
      "stateMutability": "payable",
      "type": "function",
      "payable": true
    }
  ],
  "bytecode": "0x608060405234801561001057600080fd5b5061002d61002261003260201b60201c565b61003a60201b60201c565b6100fe565b600033905090565b60008060009054906101000a900473ffffffffffffffffffffffffffffffffffffffff169050816000806101000a81548173ffffffffffffffffffffffffffffffffffffffff021916908373ffffffffffffffffffffffffffffffffffffffff1602179055508173ffffffffffffffffffffffffffffffffffffffff168173ffffffffffffffffffffffffffffffffffffffff167f8be0079c531659141344cd1fd0a4f28419497f9722a3daafe3b4186f6b6457e060405160405180910390a35050565b611ed08061010d6000396000f3fe608060405260043610620000865760003560e01c80638da5cb5b11620000555780638da5cb5b1462000123578063bfb231d21462000153578063cd31831e1462000199578063f2fde38b14620001b95762000086565b80632986c0e5146200008b578063715018a614620000bb578063800fb83f14620000d55780638c55174214620000f5575b600080fd5b3480156200009857600080fd5b50620000a3620001e7565b604051620000b29190620012a7565b60405180910390f35b348015620000c857600080fd5b50620000d3620001ed565b005b620000f36004803603810190620000ed919062000f4e565b6200027e565b005b3480156200010257600080fd5b506200012160048036038101906200011b919062000ef4565b62000537565b005b3480156200013057600080fd5b506200013b620007f4565b6040516200014a91906200115f565b60405180910390f35b3480156200016057600080fd5b506200017f600480360381019062000179919062000f4e565b6200081d565b6040516200019093929190620011b9565b60405180910390f35b620001b76004803603810190620001b1919062000f4e565b62000904565b005b348015620001c657600080fd5b50620001e56004803603810190620001df919062000ec8565b62000b9a565b005b60025481565b620001f762000c9e565b73ffffffffffffffffffffffffffffffffffffffff1662000217620007f4565b73ffffffffffffffffffffffffffffffffffffffff161462000270576040517f08c379a0000000000000000000000000000000000000000000000000000000008152600401620002679062001241565b60405180910390fd5b6200027c600062000ca6565b565b6001600082815260200190815260200160002060020160009054906101000a900473ffffffffffffffffffffffffffffffffffffffff1673ffffffffffffffffffffffffffffffffffffffff163373ffffffffffffffffffffffffffffffffffffffff161462000325576040517f08c379a00000000000000000000000000000000000000000000000000000000081526004016200031c9062001285565b60405180910390fd5b6000600281111562000360577f4e487b7100000000000000000000000000000000000000000000000000000000600052602160045260246000fd5b6001600083815260200190815260200160002060000160009054906101000a900460ff166002811115620003bd577f4e487b7100000000000000000000000000000000000000000000000000000000600052602160045260246000fd5b1462000400576040517f08c379a0000000000000000000000000000000000000000000000000000000008152600401620003f7906200121f565b60405180910390fd5b600180600083815260200190815260200160002060000160006101000a81548160ff0219169083600281111562000460577f4e487b7100000000000000000000000000000000000000000000000000000000600052602160045260246000fd5b02179055507f49572acc76fc7378614cd1e9603da0c6a157cd1fef0f068b32d234bcc4488f0d816001600084815260200190815260200160002060000160009054906101000a900460ff166002811115620004e4577f4e487b7100000000000000000000000000000000000000000000000000000000600052602160045260246000fd5b6001600085815260200190815260200160002060020160009054906101000a900473ffffffffffffffffffffffffffffffffffffffff166040516200052c9392919062001328565b60405180910390a150565b6200054162000c9e565b73ffffffffffffffffffffffffffffffffffffffff1662000561620007f4565b73ffffffffffffffffffffffffffffffffffffffff1614620005ba576040517f08c379a0000000000000000000000000000000000000000000000000000000008152600401620005b19062001241565b60405180910390fd5b600060016000600254815260200190815260200160002060000160006101000a81548160ff021916908360028111156200061d577f4e487b7100000000000000000000000000000000000000000000000000000000600052602160045260246000fd5b02179055508160016000600254815260200190815260200160002060010190805190602001906200065092919062000d6a565b503060025482604051620006649062000dfb565b62000672939291906200117c565b604051809103906000f0801580156200068f573d6000803e3d6000fd5b5060016000600254815260200190815260200160002060020160006101000a81548173ffffffffffffffffffffffffffffffffffffffff021916908373ffffffffffffffffffffffffffffffffffffffff1602179055507f3aeb3b3a400414e5d0b73a2e6fae73db423c840be1b996aee01b087871bdf7b26002546001600060025481526020019081526020016000206001018360016000600254815260200190815260200160002060000160009054906101000a900460ff16600281111562000782577f4e487b7100000000000000000000000000000000000000000000000000000000600052602160045260246000fd5b60016000600254815260200190815260200160002060020160009054906101000a900473ffffffffffffffffffffffffffffffffffffffff16604051620007ce959493929190620012c4565b60405180910390a160026000815480929190620007eb906200155d565b91905055505050565b60008060009054906101000a900473ffffffffffffffffffffffffffffffffffffffff16905090565b60016020528060005260406000206000915090508060000160009054906101000a900460ff16908060010180546200085590620014f1565b80601f01602080910402602001604051908101604052809291908181526020018280546200088390620014f1565b8015620008d45780601f10620008a857610100808354040283529160200191620008d4565b820191906000526020600020905b815481529060010190602001808311620008b657829003601f168201915b5050505050908060020160009054906101000a900473ffffffffffffffffffffffffffffffffffffffff16905083565b6200090e62000c9e565b73ffffffffffffffffffffffffffffffffffffffff166200092e620007f4565b73ffffffffffffffffffffffffffffffffffffffff161462000987576040517f08c379a00000000000000000000000000000000000000000000000000000000081526004016200097e9062001241565b60405180910390fd5b60016002811115620009c2577f4e487b7100000000000000000000000000000000000000000000000000000000600052602160045260246000fd5b6001600083815260200190815260200160002060000160009054906101000a900460ff16600281111562000a1f577f4e487b7100000000000000000000000000000000000000000000000000000000600052602160045260246000fd5b1462000a62576040517f08c379a000000000000000000000000000000000000000000000000000000000815260040162000a599062001263565b60405180910390fd5b60026001600083815260200190815260200160002060000160006101000a81548160ff0219169083600281111562000ac3577f4e487b7100000000000000000000000000000000000000000000000000000000600052602160045260246000fd5b02179055507f422d5b3237ddf57bbb7f2985b8f6763b49d00a566f9b55a509cb03b7d921f3a4816001600084815260200190815260200160002060000160009054906101000a900460ff16600281111562000b47577f4e487b7100000000000000000000000000000000000000000000000000000000600052602160045260246000fd5b6001600085815260200190815260200160002060020160009054906101000a900473ffffffffffffffffffffffffffffffffffffffff1660405162000b8f9392919062001328565b60405180910390a150565b62000ba462000c9e565b73ffffffffffffffffffffffffffffffffffffffff1662000bc4620007f4565b73ffffffffffffffffffffffffffffffffffffffff161462000c1d576040517f08c379a000000000000000000000000000000000000000000000000000000000815260040162000c149062001241565b60405180910390fd5b600073ffffffffffffffffffffffffffffffffffffffff168173ffffffffffffffffffffffffffffffffffffffff16141562000c90576040517f08c379a000000000000000000000000000000000000000000000000000000000815260040162000c8790620011fd565b60405180910390fd5b62000c9b8162000ca6565b50565b600033905090565b60008060009054906101000a900473ffffffffffffffffffffffffffffffffffffffff169050816000806101000a81548173ffffffffffffffffffffffffffffffffffffffff021916908373ffffffffffffffffffffffffffffffffffffffff1602179055508173ffffffffffffffffffffffffffffffffffffffff168173ffffffffffffffffffffffffffffffffffffffff167f8be0079c531659141344cd1fd0a4f28419497f9722a3daafe3b4186f6b6457e060405160405180910390a35050565b82805462000d7890620014f1565b90600052602060002090601f01602090048101928262000d9c576000855562000de8565b82601f1062000db757805160ff191683800117855562000de8565b8280016001018555821562000de8579182015b8281111562000de757825182559160200191906001019062000dca565b5b50905062000df7919062000e09565b5090565b610672806200182983390190565b5b8082111562000e2457600081600090555060010162000e0a565b5090565b600062000e3f62000e39846200138e565b62001365565b90508281526020810184848401111562000e5857600080fd5b62000e65848285620014ac565b509392505050565b60008135905062000e7e81620017f4565b92915050565b600082601f83011262000e9657600080fd5b813562000ea884826020860162000e28565b91505092915050565b60008135905062000ec2816200180e565b92915050565b60006020828403121562000edb57600080fd5b600062000eeb8482850162000e6d565b91505092915050565b6000806040838503121562000f0857600080fd5b600083013567ffffffffffffffff81111562000f2357600080fd5b62000f318582860162000e84565b925050602062000f448582860162000eb1565b9150509250929050565b60006020828403121562000f6157600080fd5b600062000f718482850162000eb1565b91505092915050565b62000f8581620013f5565b82525050565b62000f968162001448565b82525050565b62000fa78162001470565b82525050565b62000fb88162001498565b82525050565b600062000fcb82620013d9565b62000fd78185620013e4565b935062000fe9818560208601620014bb565b62000ff48162001667565b840191505092915050565b600081546200100e81620014f1565b6200101a8186620013e4565b945060018216600081146200103857600181146200104b5762001082565b60ff198316865260208601935062001082565b6200105685620013c4565b60005b838110156200107a5781548189015260018201915060208101905062001059565b808801955050505b50505092915050565b60006200109a602683620013e4565b9150620010a78262001678565b604082019050919050565b6000620010c1602983620013e4565b9150620010ce82620016c7565b604082019050919050565b6000620010e8602083620013e4565b9150620010f58262001716565b602082019050919050565b60006200110f602283620013e4565b91506200111c826200173f565b604082019050919050565b600062001136602f83620013e4565b915062001143826200178e565b604082019050919050565b62001159816200143e565b82525050565b600060208201905062001176600083018462000f7a565b92915050565b600060608201905062001193600083018662000f8b565b620011a260208301856200114e565b620011b160408301846200114e565b949350505050565b6000606082019050620011d0600083018662000fad565b8181036020830152620011e4818562000fbe565b9050620011f5604083018462000f9c565b949350505050565b6000602082019050818103600083015262001218816200108b565b9050919050565b600060208201905081810360008301526200123a81620010b2565b9050919050565b600060208201905081810360008301526200125c81620010d9565b9050919050565b600060208201905081810360008301526200127e8162001100565b9050919050565b60006020820190508181036000830152620012a08162001127565b9050919050565b6000602082019050620012be60008301846200114e565b92915050565b600060a082019050620012db60008301886200114e565b8181036020830152620012ef818762000fff565b90506200130060408301866200114e565b6200130f60608301856200114e565b6200131e608083018462000f7a565b9695505050505050565b60006060820190506200133f60008301866200114e565b6200134e60208301856200114e565b6200135d604083018462000f7a565b949350505050565b60006200137162001384565b90506200137f828262001527565b919050565b6000604051905090565b600067ffffffffffffffff821115620013ac57620013ab62001638565b5b620013b78262001667565b9050602081019050919050565b60008190508160005260206000209050919050565b600081519050919050565b600082825260208201905092915050565b600062001402826200141e565b9050919050565b60008190506200141982620017dd565b919050565b600073ffffffffffffffffffffffffffffffffffffffff82169050919050565b6000819050919050565b600062001455826200145c565b9050919050565b600062001469826200141e565b9050919050565b60006200147d8262001484565b9050919050565b600062001491826200141e565b9050919050565b6000620014a58262001409565b9050919050565b82818337600083830152505050565b60005b83811015620014db578082015181840152602081019050620014be565b83811115620014eb576000848401525b50505050565b600060028204905060018216806200150a57607f821691505b6020821081141562001521576200152062001609565b5b50919050565b620015328262001667565b810181811067ffffffffffffffff8211171562001554576200155362001638565b5b80604052505050565b60006200156a826200143e565b91507fffffffffffffffffffffffffffffffffffffffffffffffffffffffffffffffff821415620015a0576200159f620015ab565b5b600182019050919050565b7f4e487b7100000000000000000000000000000000000000000000000000000000600052601160045260246000fd5b7f4e487b7100000000000000000000000000000000000000000000000000000000600052602160045260246000fd5b7f4e487b7100000000000000000000000000000000000000000000000000000000600052602260045260246000fd5b7f4e487b7100000000000000000000000000000000000000000000000000000000600052604160045260246000fd5b6000601f19601f8301169050919050565b7f4f776e61626c653a206e6577206f776e657220697320746865207a65726f206160008201527f6464726573730000000000000000000000000000000000000000000000000000602082015250565b7f4974656d4d616e616765723a204974656d206973206e6f206c6f6e676572206160008201527f7661696c61626c652e0000000000000000000000000000000000000000000000602082015250565b7f4f776e61626c653a2063616c6c6572206973206e6f7420746865206f776e6572600082015250565b7f4974656d4d616e616765723a204974656d206973206e6f74207061696420796560008201527f742e000000000000000000000000000000000000000000000000000000000000602082015250565b7f4974656d4d616e616765723a204f6e6c79206974656d73206d6179207472696760008201527f67657220746865207061796d656e740000000000000000000000000000000000602082015250565b60038110620017f157620017f0620015da565b5b50565b620017ff81620013f5565b81146200180b57600080fd5b50565b62001819816200143e565b81146200182557600080fd5b5056fe608060405234801561001057600080fd5b50604051610672380380610672833981810160405281019061003291906100b2565b826000806101000a81548173ffffffffffffffffffffffffffffffffffffffff021916908373ffffffffffffffffffffffffffffffffffffffff160217905550816001819055508060028190555050505061017d565b6000815190506100978161014f565b92915050565b6000815190506100ac81610166565b92915050565b6000806000606084860312156100c757600080fd5b60006100d586828701610088565b93505060206100e68682870161009d565b92505060406100f78682870161009d565b9150509250925092565b600061010c82610125565b9050919050565b600061011e82610101565b9050919050565b600073ffffffffffffffffffffffffffffffffffffffff82169050919050565b6000819050919050565b61015881610113565b811461016357600080fd5b50565b61016f81610145565b811461017a57600080fd5b50565b6104e68061018c6000396000f3fe60806040526004361061002d5760003560e01c80632986c0e5146101f55780633c8da58814610220576101f0565b366101f0576002543414610076576040517f08c379a000000000000000000000000000000000000000000000000000000000815260040161006d90610314565b60405180910390fd5b34600360008282546100889190610376565b9250508190555060008060009054906101000a900473ffffffffffffffffffffffffffffffffffffffff1673ffffffffffffffffffffffffffffffffffffffff16346001546040516024016100dd9190610334565b6040516020818303038152906040527f800fb83f000000000000000000000000000000000000000000000000000000007bffffffffffffffffffffffffffffffffffffffffffffffffffffffff19166020820180517bffffffffffffffffffffffffffffffffffffffffffffffffffffffff838183161783525050505060405161016791906102dd565b60006040518083038185875af1925050503d80600081146101a4576040519150601f19603f3d011682016040523d82523d6000602084013e6101a9565b606091505b50509050806101ed576040517f08c379a00000000000000000000000000000000000000000000000000000000081526004016101e4906102f4565b60405180910390fd5b50005b600080fd5b34801561020157600080fd5b5061020a61024b565b6040516102179190610334565b60405180910390f35b34801561022c57600080fd5b50610235610251565b6040516102429190610334565b60405180910390f35b60015481565b60025481565b60006102628261034f565b61026c818561035a565b935061027c8185602086016103d6565b80840191505092915050565b6000610295601983610365565b91506102a082610438565b602082019050919050565b60006102b8602183610365565b91506102c382610461565b604082019050919050565b6102d7816103cc565b82525050565b60006102e98284610257565b915081905092915050565b6000602082019050818103600083015261030d81610288565b9050919050565b6000602082019050818103600083015261032d816102ab565b9050919050565b600060208201905061034960008301846102ce565b92915050565b600081519050919050565b600081905092915050565b600082825260208201905092915050565b6000610381826103cc565b915061038c836103cc565b9250827fffffffffffffffffffffffffffffffffffffffffffffffffffffffffffffffff038211156103c1576103c0610409565b5b828201905092915050565b6000819050919050565b60005b838110156103f45780820151818401526020810190506103d9565b83811115610403576000848401525b50505050565b7f4e487b7100000000000000000000000000000000000000000000000000000000600052601160045260246000fd5b7f4974656d3a205472616e73616374696f6e206661696c65642e00000000000000600082015250565b7f4974656d3a204f6e6c792065786163742076616c75657320616363657074656460008201527f2e0000000000000000000000000000000000000000000000000000000000000060208201525056fea2646970667358221220018d274922e0463f8fa67f6eb3ebc99d338b3a02b8a10237ec1c1283a68c485364736f6c63430008010033a2646970667358221220150ac40767ad73abaf3a365615fe05b027d21ed8eef7f890f86b623c4ff6886d64736f6c63430008010033",
  "immutableReferences": {},
  "source": "// SPDX-License-Identifier: MIT\npragma solidity ^0.8.0;\n\nimport { Item } from \"./Item.sol\";\nimport { Ownable } from  \"@openzeppelin/contracts/access/Ownable.sol\";\n\ncontract ItemManager is Ownable {\n    enum SupplyChainSteps { Created, Paid, Delivery } // to express state of order\n\n    struct SupplyItem {\n        ItemManager.SupplyChainSteps _step;\n        string _identifier;\n        Item _item;\n    }\n    mapping (uint => SupplyItem) public items;\n    uint public index;\n\n    event ItemCreation(uint _itemIndex, string _identifier, uint _price, uint _step, address _itemAddress);\n    event ItemPaid(uint _itemIndex, uint _step, address _itemAddress);\n    event ItemDelivery(uint _itemIndex, uint _step, address _itemAddress);\n\n    /**\n     * @dev Adds item to register\n     * @param _identifier Name of item\n     * @param _priceInWei Wei price of item\n     */\n    function createItem(string memory _identifier, uint _priceInWei) public onlyOwner {\n        items[index]._step = SupplyChainSteps.Created;\n        items[index]._identifier = _identifier;\n        items[index]._item =  new Item(this, index, _priceInWei);\n        emit ItemCreation(index, items[index]._identifier, uint(_priceInWei), uint(items[index]._step), address(items[index]._item));\n        index++;\n    }\n\n    /**\n     * @param _index Register index of item to trigger the payment\n     */\n    function triggerPayment(uint _index) public payable {\n        require(msg.sender == address(items[_index]._item), \"ItemManager: Only items may trigger the payment\");\n        require(items[_index]._step == SupplyChainSteps.Created, \"ItemManager: Item is no longer available.\");\n        items[_index]._step = SupplyChainSteps.Paid;\n        emit ItemPaid(_index, uint(items[_index]._step), address(items[_index]._item));\n    }\n\n    /**\n     * @param _index Register index of item to trigger the delivery\n     */\n    function triggerDelivery(uint _index) public payable onlyOwner {\n        require(items[_index]._step == SupplyChainSteps.Paid, \"ItemManager: Item is not paid yet.\");\n        items[_index]._step = SupplyChainSteps.Delivery;\n        emit ItemDelivery(_index, uint(items[_index]._step), address(items[_index]._item));\n    }\n}",
  "sourcePath": "/Users/matkuch/Code/supply-chain/contracts/ItemManager.sol",
  "compiler": {
    "name": "solc",
    "version": "0.8.1+commit.df193b15.Emscripten.clang"
  },
  "schemaVersion": "3.4.6",
  "updatedAt": "2022-04-06T01:58:53.257Z",
  "networkType": "ethereum",
  "devdoc": {
    "kind": "dev",
    "methods": {
      "createItem(string,uint256)": {
        "details": "Adds item to register",
        "params": {
          "_identifier": "Name of item",
          "_priceInWei": "Wei price of item"
        }
      },
      "owner()": {
        "details": "Returns the address of the current owner."
      },
      "renounceOwnership()": {
        "details": "Leaves the contract without owner. It will not be possible to call `onlyOwner` functions anymore. Can only be called by the current owner. NOTE: Renouncing ownership will leave the contract without an owner, thereby removing any functionality that is only available to the owner."
      },
      "transferOwnership(address)": {
        "details": "Transfers ownership of the contract to a new account (`newOwner`). Can only be called by the current owner."
      },
      "triggerDelivery(uint256)": {
        "params": {
          "_index": "Register index of item to trigger the delivery"
        }
      },
      "triggerPayment(uint256)": {
        "params": {
          "_index": "Register index of item to trigger the payment"
        }
      }
    },
    "version": 1
  },
  "userdoc": {
    "kind": "user",
    "methods": {},
    "version": 1
  }
}